{
	"contracts/es5/Test.sol": {
		"Test": {
			"abi": [
				{
					"inputs": [
						{
							"internalType": "uint256",
							"name": "a",
							"type": "uint256"
						},
						{
							"internalType": "uint256",
							"name": "b",
							"type": "uint256"
						}
					],
					"name": "testAverage",
					"outputs": [
						{
							"internalType": "uint256",
							"name": "",
							"type": "uint256"
						}
					],
					"stateMutability": "pure",
					"type": "function"
				},
				{
					"inputs": [
						{
							"internalType": "uint256",
							"name": "a",
							"type": "uint256"
						},
						{
							"internalType": "uint256",
							"name": "b",
							"type": "uint256"
						}
					],
					"name": "testMax",
					"outputs": [
						{
							"internalType": "uint256",
							"name": "",
							"type": "uint256"
						}
					],
					"stateMutability": "pure",
					"type": "function"
				},
				{
					"inputs": [
						{
							"internalType": "uint256",
							"name": "a",
							"type": "uint256"
						},
						{
							"internalType": "uint256",
							"name": "b",
							"type": "uint256"
						}
					],
					"name": "testMin",
					"outputs": [
						{
							"internalType": "uint256",
							"name": "",
							"type": "uint256"
						}
					],
					"stateMutability": "pure",
					"type": "function"
				}
			],
			"devdoc": {
				"kind": "dev",
				"methods": {},
				"version": 1
			},
			"evm": {
				"assembly": "    /* \"contracts/es5/Test.sol\":91:463  contract Test{... */\n  mstore(0x40, 0x80)\n  callvalue\n  dup1\n  iszero\n  tag_1\n  jumpi\n  0x00\n  dup1\n  revert\ntag_1:\n  pop\n  dataSize(sub_0)\n  dup1\n  dataOffset(sub_0)\n  0x00\n  codecopy\n  0x00\n  return\nstop\n\nsub_0: assembly {\n        /* \"contracts/es5/Test.sol\":91:463  contract Test{... */\n      mstore(0x40, 0x80)\n      callvalue\n      dup1\n      iszero\n      tag_1\n      jumpi\n      0x00\n      dup1\n      revert\n    tag_1:\n      pop\n      jumpi(tag_2, lt(calldatasize, 0x04))\n      shr(0xe0, calldataload(0x00))\n      dup1\n      0x1abe5974\n      eq\n      tag_3\n      jumpi\n      dup1\n      0x834db421\n      eq\n      tag_4\n      jumpi\n      dup1\n      0xf2eae5cc\n      eq\n      tag_5\n      jumpi\n    tag_2:\n      0x00\n      dup1\n      revert\n        /* \"contracts/es5/Test.sol\":141:241  function testMin(uint a, uint b) public pure returns(uint){... */\n    tag_3:\n      tag_6\n      0x04\n      dup1\n      calldatasize\n      sub\n      dup2\n      add\n      swap1\n      tag_7\n      swap2\n      swap1\n      tag_8\n      jump\t// in\n    tag_7:\n      tag_9\n      jump\t// in\n    tag_6:\n      mload(0x40)\n      tag_10\n      swap2\n      swap1\n      tag_11\n      jump\t// in\n    tag_10:\n      mload(0x40)\n      dup1\n      swap2\n      sub\n      swap1\n      return\n        /* \"contracts/es5/Test.sol\":247:347  function testMax(uint a, uint b) public pure returns(uint){... */\n    tag_4:\n      tag_12\n      0x04\n      dup1\n      calldatasize\n      sub\n      dup2\n      add\n      swap1\n      tag_13\n      swap2\n      swap1\n      tag_8\n      jump\t// in\n    tag_13:\n      tag_14\n      jump\t// in\n    tag_12:\n      mload(0x40)\n      tag_15\n      swap2\n      swap1\n      tag_11\n      jump\t// in\n    tag_15:\n      mload(0x40)\n      dup1\n      swap2\n      sub\n      swap1\n      return\n        /* \"contracts/es5/Test.sol\":353:461  function testAverage(uint a, uint b) public pure returns(uint){... */\n    tag_5:\n      tag_16\n      0x04\n      dup1\n      calldatasize\n      sub\n      dup2\n      add\n      swap1\n      tag_17\n      swap2\n      swap1\n      tag_8\n      jump\t// in\n    tag_17:\n      tag_18\n      jump\t// in\n    tag_16:\n      mload(0x40)\n      tag_19\n      swap2\n      swap1\n      tag_11\n      jump\t// in\n    tag_19:\n      mload(0x40)\n      dup1\n      swap2\n      sub\n      swap1\n      return\n        /* \"contracts/es5/Test.sol\":141:241  function testMin(uint a, uint b) public pure returns(uint){... */\n    tag_9:\n        /* \"contracts/es5/Test.sol\":194:198  uint */\n      0x00\n        /* \"contracts/es5/Test.sol\":216:224  Math2Num */\n      linkerSymbol(\"279828a4dc0259606470fa716c9e630aef4a09604487bc02f72ef96bd1a75c29\")\n        /* \"contracts/es5/Test.sol\":216:228  Math2Num.min */\n      0x7ae2b5c7\n        /* \"contracts/es5/Test.sol\":229:230  a */\n      dup5\n        /* \"contracts/es5/Test.sol\":232:233  b */\n      dup5\n        /* \"contracts/es5/Test.sol\":216:234  Math2Num.min(a, b) */\n      mload(0x40)\n      dup4\n      0xffffffff\n      and\n      0xe0\n      shl\n      dup2\n      mstore\n      0x04\n      add\n      tag_21\n      swap3\n      swap2\n      swap1\n      tag_22\n      jump\t// in\n    tag_21:\n      0x20\n      mload(0x40)\n      dup1\n      dup4\n      sub\n      dup2\n      dup7\n      gas\n      delegatecall\n      iszero\n      dup1\n      iszero\n      tag_24\n      jumpi\n      returndatasize\n      0x00\n      dup1\n      returndatacopy\n      revert(0x00, returndatasize)\n    tag_24:\n      pop\n      pop\n      pop\n      pop\n      mload(0x40)\n      returndatasize\n      not(0x1f)\n      0x1f\n      dup3\n      add\n      and\n      dup3\n      add\n      dup1\n      0x40\n      mstore\n      pop\n      dup2\n      add\n      swap1\n      tag_25\n      swap2\n      swap1\n      tag_26\n      jump\t// in\n    tag_25:\n        /* \"contracts/es5/Test.sol\":209:234  return Math2Num.min(a, b) */\n      swap1\n      pop\n        /* \"contracts/es5/Test.sol\":141:241  function testMin(uint a, uint b) public pure returns(uint){... */\n      swap3\n      swap2\n      pop\n      pop\n      jump\t// out\n        /* \"contracts/es5/Test.sol\":247:347  function testMax(uint a, uint b) public pure returns(uint){... */\n    tag_14:\n        /* \"contracts/es5/Test.sol\":300:304  uint */\n      0x00\n        /* \"contracts/es5/Test.sol\":322:330  Math2Num */\n      linkerSymbol(\"279828a4dc0259606470fa716c9e630aef4a09604487bc02f72ef96bd1a75c29\")\n        /* \"contracts/es5/Test.sol\":322:334  Math2Num.max */\n      0x6d5433e6\n        /* \"contracts/es5/Test.sol\":335:336  a */\n      dup5\n        /* \"contracts/es5/Test.sol\":338:339  b */\n      dup5\n        /* \"contracts/es5/Test.sol\":322:340  Math2Num.max(a, b) */\n      mload(0x40)\n      dup4\n      0xffffffff\n      and\n      0xe0\n      shl\n      dup2\n      mstore\n      0x04\n      add\n      tag_28\n      swap3\n      swap2\n      swap1\n      tag_22\n      jump\t// in\n    tag_28:\n      0x20\n      mload(0x40)\n      dup1\n      dup4\n      sub\n      dup2\n      dup7\n      gas\n      delegatecall\n      iszero\n      dup1\n      iszero\n      tag_30\n      jumpi\n      returndatasize\n      0x00\n      dup1\n      returndatacopy\n      revert(0x00, returndatasize)\n    tag_30:\n      pop\n      pop\n      pop\n      pop\n      mload(0x40)\n      returndatasize\n      not(0x1f)\n      0x1f\n      dup3\n      add\n      and\n      dup3\n      add\n      dup1\n      0x40\n      mstore\n      pop\n      dup2\n      add\n      swap1\n      tag_31\n      swap2\n      swap1\n      tag_26\n      jump\t// in\n    tag_31:\n        /* \"contracts/es5/Test.sol\":315:340  return Math2Num.max(a, b) */\n      swap1\n      pop\n        /* \"contracts/es5/Test.sol\":247:347  function testMax(uint a, uint b) public pure returns(uint){... */\n      swap3\n      swap2\n      pop\n      pop\n      jump\t// out\n        /* \"contracts/es5/Test.sol\":353:461  function testAverage(uint a, uint b) public pure returns(uint){... */\n    tag_18:\n        /* \"contracts/es5/Test.sol\":410:414  uint */\n      0x00\n        /* \"contracts/es5/Test.sol\":432:440  Math2Num */\n      linkerSymbol(\"279828a4dc0259606470fa716c9e630aef4a09604487bc02f72ef96bd1a75c29\")\n        /* \"contracts/es5/Test.sol\":432:448  Math2Num.average */\n      0x2b7423ab\n        /* \"contracts/es5/Test.sol\":449:450  a */\n      dup5\n        /* \"contracts/es5/Test.sol\":452:453  b */\n      dup5\n        /* \"contracts/es5/Test.sol\":432:454  Math2Num.average(a, b) */\n      mload(0x40)\n      dup4\n      0xffffffff\n      and\n      0xe0\n      shl\n      dup2\n      mstore\n      0x04\n      add\n      tag_33\n      swap3\n      swap2\n      swap1\n      tag_22\n      jump\t// in\n    tag_33:\n      0x20\n      mload(0x40)\n      dup1\n      dup4\n      sub\n      dup2\n      dup7\n      gas\n      delegatecall\n      iszero\n      dup1\n      iszero\n      tag_35\n      jumpi\n      returndatasize\n      0x00\n      dup1\n      returndatacopy\n      revert(0x00, returndatasize)\n    tag_35:\n      pop\n      pop\n      pop\n      pop\n      mload(0x40)\n      returndatasize\n      not(0x1f)\n      0x1f\n      dup3\n      add\n      and\n      dup3\n      add\n      dup1\n      0x40\n      mstore\n      pop\n      dup2\n      add\n      swap1\n      tag_36\n      swap2\n      swap1\n      tag_26\n      jump\t// in\n    tag_36:\n        /* \"contracts/es5/Test.sol\":425:454  return Math2Num.average(a, b) */\n      swap1\n      pop\n        /* \"contracts/es5/Test.sol\":353:461  function testAverage(uint a, uint b) public pure returns(uint){... */\n      swap3\n      swap2\n      pop\n      pop\n      jump\t// out\n        /* \"#utility.yul\":88:205   */\n    tag_38:\n        /* \"#utility.yul\":197:198   */\n      0x00\n        /* \"#utility.yul\":194:195   */\n      dup1\n        /* \"#utility.yul\":187:199   */\n      revert\n        /* \"#utility.yul\":334:411   */\n    tag_40:\n        /* \"#utility.yul\":371:378   */\n      0x00\n        /* \"#utility.yul\":400:405   */\n      dup2\n        /* \"#utility.yul\":389:405   */\n      swap1\n      pop\n        /* \"#utility.yul\":334:411   */\n      swap2\n      swap1\n      pop\n      jump\t// out\n        /* \"#utility.yul\":417:539   */\n    tag_41:\n        /* \"#utility.yul\":490:514   */\n      tag_52\n        /* \"#utility.yul\":508:513   */\n      dup2\n        /* \"#utility.yul\":490:514   */\n      tag_40\n      jump\t// in\n    tag_52:\n        /* \"#utility.yul\":483:488   */\n      dup2\n        /* \"#utility.yul\":480:515   */\n      eq\n        /* \"#utility.yul\":470:533   */\n      tag_53\n      jumpi\n        /* \"#utility.yul\":529:530   */\n      0x00\n        /* \"#utility.yul\":526:527   */\n      dup1\n        /* \"#utility.yul\":519:531   */\n      revert\n        /* \"#utility.yul\":470:533   */\n    tag_53:\n        /* \"#utility.yul\":417:539   */\n      pop\n      jump\t// out\n        /* \"#utility.yul\":545:684   */\n    tag_42:\n        /* \"#utility.yul\":591:596   */\n      0x00\n        /* \"#utility.yul\":629:635   */\n      dup2\n        /* \"#utility.yul\":616:636   */\n      calldataload\n        /* \"#utility.yul\":607:636   */\n      swap1\n      pop\n        /* \"#utility.yul\":645:678   */\n      tag_55\n        /* \"#utility.yul\":672:677   */\n      dup2\n        /* \"#utility.yul\":645:678   */\n      tag_41\n      jump\t// in\n    tag_55:\n        /* \"#utility.yul\":545:684   */\n      swap3\n      swap2\n      pop\n      pop\n      jump\t// out\n        /* \"#utility.yul\":690:1164   */\n    tag_8:\n        /* \"#utility.yul\":758:764   */\n      0x00\n        /* \"#utility.yul\":766:772   */\n      dup1\n        /* \"#utility.yul\":815:817   */\n      0x40\n        /* \"#utility.yul\":803:812   */\n      dup4\n        /* \"#utility.yul\":794:801   */\n      dup6\n        /* \"#utility.yul\":790:813   */\n      sub\n        /* \"#utility.yul\":786:818   */\n      slt\n        /* \"#utility.yul\":783:902   */\n      iszero\n      tag_57\n      jumpi\n        /* \"#utility.yul\":821:900   */\n      tag_58\n      tag_38\n      jump\t// in\n    tag_58:\n        /* \"#utility.yul\":783:902   */\n    tag_57:\n        /* \"#utility.yul\":941:942   */\n      0x00\n        /* \"#utility.yul\":966:1019   */\n      tag_59\n        /* \"#utility.yul\":1011:1018   */\n      dup6\n        /* \"#utility.yul\":1002:1008   */\n      dup3\n        /* \"#utility.yul\":991:1000   */\n      dup7\n        /* \"#utility.yul\":987:1009   */\n      add\n        /* \"#utility.yul\":966:1019   */\n      tag_42\n      jump\t// in\n    tag_59:\n        /* \"#utility.yul\":956:1019   */\n      swap3\n      pop\n        /* \"#utility.yul\":912:1029   */\n      pop\n        /* \"#utility.yul\":1068:1070   */\n      0x20\n        /* \"#utility.yul\":1094:1147   */\n      tag_60\n        /* \"#utility.yul\":1139:1146   */\n      dup6\n        /* \"#utility.yul\":1130:1136   */\n      dup3\n        /* \"#utility.yul\":1119:1128   */\n      dup7\n        /* \"#utility.yul\":1115:1137   */\n      add\n        /* \"#utility.yul\":1094:1147   */\n      tag_42\n      jump\t// in\n    tag_60:\n        /* \"#utility.yul\":1084:1147   */\n      swap2\n      pop\n        /* \"#utility.yul\":1039:1157   */\n      pop\n        /* \"#utility.yul\":690:1164   */\n      swap3\n      pop\n      swap3\n      swap1\n      pop\n      jump\t// out\n        /* \"#utility.yul\":1170:1288   */\n    tag_43:\n        /* \"#utility.yul\":1257:1281   */\n      tag_62\n        /* \"#utility.yul\":1275:1280   */\n      dup2\n        /* \"#utility.yul\":1257:1281   */\n      tag_40\n      jump\t// in\n    tag_62:\n        /* \"#utility.yul\":1252:1255   */\n      dup3\n        /* \"#utility.yul\":1245:1282   */\n      mstore\n        /* \"#utility.yul\":1170:1288   */\n      pop\n      pop\n      jump\t// out\n        /* \"#utility.yul\":1294:1516   */\n    tag_11:\n        /* \"#utility.yul\":1387:1391   */\n      0x00\n        /* \"#utility.yul\":1425:1427   */\n      0x20\n        /* \"#utility.yul\":1414:1423   */\n      dup3\n        /* \"#utility.yul\":1410:1428   */\n      add\n        /* \"#utility.yul\":1402:1428   */\n      swap1\n      pop\n        /* \"#utility.yul\":1438:1509   */\n      tag_64\n        /* \"#utility.yul\":1506:1507   */\n      0x00\n        /* \"#utility.yul\":1495:1504   */\n      dup4\n        /* \"#utility.yul\":1491:1508   */\n      add\n        /* \"#utility.yul\":1482:1488   */\n      dup5\n        /* \"#utility.yul\":1438:1509   */\n      tag_43\n      jump\t// in\n    tag_64:\n        /* \"#utility.yul\":1294:1516   */\n      swap3\n      swap2\n      pop\n      pop\n      jump\t// out\n        /* \"#utility.yul\":1522:1648   */\n    tag_44:\n        /* \"#utility.yul\":1617:1641   */\n      tag_66\n        /* \"#utility.yul\":1635:1640   */\n      dup2\n        /* \"#utility.yul\":1617:1641   */\n      tag_40\n      jump\t// in\n    tag_66:\n        /* \"#utility.yul\":1612:1615   */\n      dup3\n        /* \"#utility.yul\":1605:1642   */\n      mstore\n        /* \"#utility.yul\":1522:1648   */\n      pop\n      pop\n      jump\t// out\n        /* \"#utility.yul\":1654:2010   */\n    tag_22:\n        /* \"#utility.yul\":1783:1787   */\n      0x00\n        /* \"#utility.yul\":1821:1823   */\n      0x40\n        /* \"#utility.yul\":1810:1819   */\n      dup3\n        /* \"#utility.yul\":1806:1824   */\n      add\n        /* \"#utility.yul\":1798:1824   */\n      swap1\n      pop\n        /* \"#utility.yul\":1834:1913   */\n      tag_68\n        /* \"#utility.yul\":1910:1911   */\n      0x00\n        /* \"#utility.yul\":1899:1908   */\n      dup4\n        /* \"#utility.yul\":1895:1912   */\n      add\n        /* \"#utility.yul\":1886:1892   */\n      dup6\n        /* \"#utility.yul\":1834:1913   */\n      tag_44\n      jump\t// in\n    tag_68:\n        /* \"#utility.yul\":1923:2003   */\n      tag_69\n        /* \"#utility.yul\":1999:2001   */\n      0x20\n        /* \"#utility.yul\":1988:1997   */\n      dup4\n        /* \"#utility.yul\":1984:2002   */\n      add\n        /* \"#utility.yul\":1975:1981   */\n      dup5\n        /* \"#utility.yul\":1923:2003   */\n      tag_44\n      jump\t// in\n    tag_69:\n        /* \"#utility.yul\":1654:2010   */\n      swap4\n      swap3\n      pop\n      pop\n      pop\n      jump\t// out\n        /* \"#utility.yul\":2016:2159   */\n    tag_45:\n        /* \"#utility.yul\":2073:2078   */\n      0x00\n        /* \"#utility.yul\":2104:2110   */\n      dup2\n        /* \"#utility.yul\":2098:2111   */\n      mload\n        /* \"#utility.yul\":2089:2111   */\n      swap1\n      pop\n        /* \"#utility.yul\":2120:2153   */\n      tag_71\n        /* \"#utility.yul\":2147:2152   */\n      dup2\n        /* \"#utility.yul\":2120:2153   */\n      tag_41\n      jump\t// in\n    tag_71:\n        /* \"#utility.yul\":2016:2159   */\n      swap3\n      swap2\n      pop\n      pop\n      jump\t// out\n        /* \"#utility.yul\":2165:2516   */\n    tag_26:\n        /* \"#utility.yul\":2235:2241   */\n      0x00\n        /* \"#utility.yul\":2284:2286   */\n      0x20\n        /* \"#utility.yul\":2272:2281   */\n      dup3\n        /* \"#utility.yul\":2263:2270   */\n      dup5\n        /* \"#utility.yul\":2259:2282   */\n      sub\n        /* \"#utility.yul\":2255:2287   */\n      slt\n        /* \"#utility.yul\":2252:2371   */\n      iszero\n      tag_73\n      jumpi\n        /* \"#utility.yul\":2290:2369   */\n      tag_74\n      tag_38\n      jump\t// in\n    tag_74:\n        /* \"#utility.yul\":2252:2371   */\n    tag_73:\n        /* \"#utility.yul\":2410:2411   */\n      0x00\n        /* \"#utility.yul\":2435:2499   */\n      tag_75\n        /* \"#utility.yul\":2491:2498   */\n      dup5\n        /* \"#utility.yul\":2482:2488   */\n      dup3\n        /* \"#utility.yul\":2471:2480   */\n      dup6\n        /* \"#utility.yul\":2467:2489   */\n      add\n        /* \"#utility.yul\":2435:2499   */\n      tag_45\n      jump\t// in\n    tag_75:\n        /* \"#utility.yul\":2425:2499   */\n      swap2\n      pop\n        /* \"#utility.yul\":2381:2509   */\n      pop\n        /* \"#utility.yul\":2165:2516   */\n      swap3\n      swap2\n      pop\n      pop\n      jump\t// out\n\n    auxdata: 0xa2646970667358221220d75b875891adf175f4bc45c95e8e5f28a2398acd1d64ab0638b37dc2e51d8b9064736f6c634300081a0033\n}\n",
				"bytecode": {
					"linkReferences": {
						"contracts/es5/Math2Num.sol": {
							"Math2Num": [
								{
									"length": 20,
									"start": 242
								},
								{
									"length": 20,
									"start": 371
								},
								{
									"length": 20,
									"start": 500
								}
							]
						}
					},
					"object": "6080604052348015600e575f80fd5b5061039e8061001c5f395ff3fe608060405234801561000f575f80fd5b506004361061003f575f3560e01c80631abe597414610043578063834db42114610073578063f2eae5cc146100a3575b5f80fd5b61005d6004803603810190610058919061028d565b6100d3565b60405161006a91906102da565b60405180910390f35b61008d6004803603810190610088919061028d565b610154565b60405161009a91906102da565b60405180910390f35b6100bd60048036038101906100b8919061028d565b6101d5565b6040516100ca91906102da565b60405180910390f35b5f73__$279828a4dc0259606470fa716c9e630aef$__637ae2b5c784846040518363ffffffff1660e01b815260040161010d929190610302565b602060405180830381865af4158015610128573d5f803e3d5ffd5b505050506040513d601f19601f8201168201806040525081019061014c919061033d565b905092915050565b5f73__$279828a4dc0259606470fa716c9e630aef$__636d5433e684846040518363ffffffff1660e01b815260040161018e929190610302565b602060405180830381865af41580156101a9573d5f803e3d5ffd5b505050506040513d601f19601f820116820180604052508101906101cd919061033d565b905092915050565b5f73__$279828a4dc0259606470fa716c9e630aef$__632b7423ab84846040518363ffffffff1660e01b815260040161020f929190610302565b602060405180830381865af415801561022a573d5f803e3d5ffd5b505050506040513d601f19601f8201168201806040525081019061024e919061033d565b905092915050565b5f80fd5b5f819050919050565b61026c8161025a565b8114610276575f80fd5b50565b5f8135905061028781610263565b92915050565b5f80604083850312156102a3576102a2610256565b5b5f6102b085828601610279565b92505060206102c185828601610279565b9150509250929050565b6102d48161025a565b82525050565b5f6020820190506102ed5f8301846102cb565b92915050565b6102fc8161025a565b82525050565b5f6040820190506103155f8301856102f3565b61032260208301846102f3565b9392505050565b5f8151905061033781610263565b92915050565b5f6020828403121561035257610351610256565b5b5f61035f84828501610329565b9150509291505056fea2646970667358221220d75b875891adf175f4bc45c95e8e5f28a2398acd1d64ab0638b37dc2e51d8b9064736f6c634300081a0033",
					"opcodes": "PUSH1 0x80 PUSH1 0x40 MSTORE CALLVALUE DUP1 ISZERO PUSH1 0xE JUMPI PUSH0 DUP1 REVERT JUMPDEST POP PUSH2 0x39E DUP1 PUSH2 0x1C PUSH0 CODECOPY PUSH0 RETURN INVALID PUSH1 0x80 PUSH1 0x40 MSTORE CALLVALUE DUP1 ISZERO PUSH2 0xF JUMPI PUSH0 DUP1 REVERT JUMPDEST POP PUSH1 0x4 CALLDATASIZE LT PUSH2 0x3F JUMPI PUSH0 CALLDATALOAD PUSH1 0xE0 SHR DUP1 PUSH4 0x1ABE5974 EQ PUSH2 0x43 JUMPI DUP1 PUSH4 0x834DB421 EQ PUSH2 0x73 JUMPI DUP1 PUSH4 0xF2EAE5CC EQ PUSH2 0xA3 JUMPI JUMPDEST PUSH0 DUP1 REVERT JUMPDEST PUSH2 0x5D PUSH1 0x4 DUP1 CALLDATASIZE SUB DUP2 ADD SWAP1 PUSH2 0x58 SWAP2 SWAP1 PUSH2 0x28D JUMP JUMPDEST PUSH2 0xD3 JUMP JUMPDEST PUSH1 0x40 MLOAD PUSH2 0x6A SWAP2 SWAP1 PUSH2 0x2DA JUMP JUMPDEST PUSH1 0x40 MLOAD DUP1 SWAP2 SUB SWAP1 RETURN JUMPDEST PUSH2 0x8D PUSH1 0x4 DUP1 CALLDATASIZE SUB DUP2 ADD SWAP1 PUSH2 0x88 SWAP2 SWAP1 PUSH2 0x28D JUMP JUMPDEST PUSH2 0x154 JUMP JUMPDEST PUSH1 0x40 MLOAD PUSH2 0x9A SWAP2 SWAP1 PUSH2 0x2DA JUMP JUMPDEST PUSH1 0x40 MLOAD DUP1 SWAP2 SUB SWAP1 RETURN JUMPDEST PUSH2 0xBD PUSH1 0x4 DUP1 CALLDATASIZE SUB DUP2 ADD SWAP1 PUSH2 0xB8 SWAP2 SWAP1 PUSH2 0x28D JUMP JUMPDEST PUSH2 0x1D5 JUMP JUMPDEST PUSH1 0x40 MLOAD PUSH2 0xCA SWAP2 SWAP1 PUSH2 0x2DA JUMP JUMPDEST PUSH1 0x40 MLOAD DUP1 SWAP2 SUB SWAP1 RETURN JUMPDEST PUSH0 PUSH20 0x0 PUSH4 0x7AE2B5C7 DUP5 DUP5 PUSH1 0x40 MLOAD DUP4 PUSH4 0xFFFFFFFF AND PUSH1 0xE0 SHL DUP2 MSTORE PUSH1 0x4 ADD PUSH2 0x10D SWAP3 SWAP2 SWAP1 PUSH2 0x302 JUMP JUMPDEST PUSH1 0x20 PUSH1 0x40 MLOAD DUP1 DUP4 SUB DUP2 DUP7 GAS DELEGATECALL ISZERO DUP1 ISZERO PUSH2 0x128 JUMPI RETURNDATASIZE PUSH0 DUP1 RETURNDATACOPY RETURNDATASIZE PUSH0 REVERT JUMPDEST POP POP POP POP PUSH1 0x40 MLOAD RETURNDATASIZE PUSH1 0x1F NOT PUSH1 0x1F DUP3 ADD AND DUP3 ADD DUP1 PUSH1 0x40 MSTORE POP DUP2 ADD SWAP1 PUSH2 0x14C SWAP2 SWAP1 PUSH2 0x33D JUMP JUMPDEST SWAP1 POP SWAP3 SWAP2 POP POP JUMP JUMPDEST PUSH0 PUSH20 0x0 PUSH4 0x6D5433E6 DUP5 DUP5 PUSH1 0x40 MLOAD DUP4 PUSH4 0xFFFFFFFF AND PUSH1 0xE0 SHL DUP2 MSTORE PUSH1 0x4 ADD PUSH2 0x18E SWAP3 SWAP2 SWAP1 PUSH2 0x302 JUMP JUMPDEST PUSH1 0x20 PUSH1 0x40 MLOAD DUP1 DUP4 SUB DUP2 DUP7 GAS DELEGATECALL ISZERO DUP1 ISZERO PUSH2 0x1A9 JUMPI RETURNDATASIZE PUSH0 DUP1 RETURNDATACOPY RETURNDATASIZE PUSH0 REVERT JUMPDEST POP POP POP POP PUSH1 0x40 MLOAD RETURNDATASIZE PUSH1 0x1F NOT PUSH1 0x1F DUP3 ADD AND DUP3 ADD DUP1 PUSH1 0x40 MSTORE POP DUP2 ADD SWAP1 PUSH2 0x1CD SWAP2 SWAP1 PUSH2 0x33D JUMP JUMPDEST SWAP1 POP SWAP3 SWAP2 POP POP JUMP JUMPDEST PUSH0 PUSH20 0x0 PUSH4 0x2B7423AB DUP5 DUP5 PUSH1 0x40 MLOAD DUP4 PUSH4 0xFFFFFFFF AND PUSH1 0xE0 SHL DUP2 MSTORE PUSH1 0x4 ADD PUSH2 0x20F SWAP3 SWAP2 SWAP1 PUSH2 0x302 JUMP JUMPDEST PUSH1 0x20 PUSH1 0x40 MLOAD DUP1 DUP4 SUB DUP2 DUP7 GAS DELEGATECALL ISZERO DUP1 ISZERO PUSH2 0x22A JUMPI RETURNDATASIZE PUSH0 DUP1 RETURNDATACOPY RETURNDATASIZE PUSH0 REVERT JUMPDEST POP POP POP POP PUSH1 0x40 MLOAD RETURNDATASIZE PUSH1 0x1F NOT PUSH1 0x1F DUP3 ADD AND DUP3 ADD DUP1 PUSH1 0x40 MSTORE POP DUP2 ADD SWAP1 PUSH2 0x24E SWAP2 SWAP1 PUSH2 0x33D JUMP JUMPDEST SWAP1 POP SWAP3 SWAP2 POP POP JUMP JUMPDEST PUSH0 DUP1 REVERT JUMPDEST PUSH0 DUP2 SWAP1 POP SWAP2 SWAP1 POP JUMP JUMPDEST PUSH2 0x26C DUP2 PUSH2 0x25A JUMP JUMPDEST DUP2 EQ PUSH2 0x276 JUMPI PUSH0 DUP1 REVERT JUMPDEST POP JUMP JUMPDEST PUSH0 DUP2 CALLDATALOAD SWAP1 POP PUSH2 0x287 DUP2 PUSH2 0x263 JUMP JUMPDEST SWAP3 SWAP2 POP POP JUMP JUMPDEST PUSH0 DUP1 PUSH1 0x40 DUP4 DUP6 SUB SLT ISZERO PUSH2 0x2A3 JUMPI PUSH2 0x2A2 PUSH2 0x256 JUMP JUMPDEST JUMPDEST PUSH0 PUSH2 0x2B0 DUP6 DUP3 DUP7 ADD PUSH2 0x279 JUMP JUMPDEST SWAP3 POP POP PUSH1 0x20 PUSH2 0x2C1 DUP6 DUP3 DUP7 ADD PUSH2 0x279 JUMP JUMPDEST SWAP2 POP POP SWAP3 POP SWAP3 SWAP1 POP JUMP JUMPDEST PUSH2 0x2D4 DUP2 PUSH2 0x25A JUMP JUMPDEST DUP3 MSTORE POP POP JUMP JUMPDEST PUSH0 PUSH1 0x20 DUP3 ADD SWAP1 POP PUSH2 0x2ED PUSH0 DUP4 ADD DUP5 PUSH2 0x2CB JUMP JUMPDEST SWAP3 SWAP2 POP POP JUMP JUMPDEST PUSH2 0x2FC DUP2 PUSH2 0x25A JUMP JUMPDEST DUP3 MSTORE POP POP JUMP JUMPDEST PUSH0 PUSH1 0x40 DUP3 ADD SWAP1 POP PUSH2 0x315 PUSH0 DUP4 ADD DUP6 PUSH2 0x2F3 JUMP JUMPDEST PUSH2 0x322 PUSH1 0x20 DUP4 ADD DUP5 PUSH2 0x2F3 JUMP JUMPDEST SWAP4 SWAP3 POP POP POP JUMP JUMPDEST PUSH0 DUP2 MLOAD SWAP1 POP PUSH2 0x337 DUP2 PUSH2 0x263 JUMP JUMPDEST SWAP3 SWAP2 POP POP JUMP JUMPDEST PUSH0 PUSH1 0x20 DUP3 DUP5 SUB SLT ISZERO PUSH2 0x352 JUMPI PUSH2 0x351 PUSH2 0x256 JUMP JUMPDEST JUMPDEST PUSH0 PUSH2 0x35F DUP5 DUP3 DUP6 ADD PUSH2 0x329 JUMP JUMPDEST SWAP2 POP POP SWAP3 SWAP2 POP POP JUMP INVALID LOG2 PUSH5 0x6970667358 0x22 SLT KECCAK256 0xD7 JUMPDEST DUP8 PC SWAP2 0xAD CALL PUSH22 0xF4BC45C95E8E5F28A2398ACD1D64AB0638B37DC2E51D DUP12 SWAP1 PUSH5 0x736F6C6343 STOP ADDMOD BYTE STOP CALLER "
				},
				"gasEstimates": {
					"creation": {
						"codeDepositCost": "185200",
						"executionCost": "224",
						"totalCost": "185424"
					},
					"external": {
						"testAverage(uint256,uint256)": "infinite",
						"testMax(uint256,uint256)": "infinite",
						"testMin(uint256,uint256)": "infinite"
					}
				},
				"methodIdentifiers": {
					"testAverage(uint256,uint256)": "f2eae5cc",
					"testMax(uint256,uint256)": "834db421",
					"testMin(uint256,uint256)": "1abe5974"
				}
			},
			"storageLayout": {
				"storage": [],
				"types": null
			},
			"userdoc": {
				"kind": "user",
				"methods": {},
				"version": 1
			}
		}
	}
}