{
	"contracts/es4/Bank.sol": {
		"Bank": {
			"abi": [
				{
					"inputs": [
						{
							"internalType": "uint256",
							"name": "initial_balance",
							"type": "uint256"
						}
					],
					"stateMutability": "nonpayable",
					"type": "constructor"
				},
				{
					"inputs": [
						{
							"internalType": "uint256",
							"name": "money",
							"type": "uint256"
						}
					],
					"name": "deposit",
					"outputs": [
						{
							"internalType": "uint256",
							"name": "",
							"type": "uint256"
						}
					],
					"stateMutability": "nonpayable",
					"type": "function"
				},
				{
					"inputs": [],
					"name": "getBalance",
					"outputs": [
						{
							"internalType": "uint256",
							"name": "",
							"type": "uint256"
						}
					],
					"stateMutability": "view",
					"type": "function"
				},
				{
					"inputs": [
						{
							"internalType": "uint256",
							"name": "money",
							"type": "uint256"
						}
					],
					"name": "withdraw",
					"outputs": [
						{
							"internalType": "uint256",
							"name": "",
							"type": "uint256"
						}
					],
					"stateMutability": "nonpayable",
					"type": "function"
				}
			],
			"devdoc": {
				"kind": "dev",
				"methods": {},
				"version": 1
			},
			"evm": {
				"assembly": "    /* \"contracts/es4/Bank.sol\":363:1135  contract Bank{... */\n  mstore(0x40, 0x80)\n    /* \"contracts/es4/Bank.sol\":501:502  0 */\n  0x00\n    /* \"contracts/es4/Bank.sol\":478:502  uint private balance = 0 */\n  dup1\n  sstore\n    /* \"contracts/es4/Bank.sol\":509:678  constructor (uint initial_balance){... */\n  callvalue\n  dup1\n  iszero\n  tag_1\n  jumpi\n  0x00\n  dup1\n  revert\ntag_1:\n  pop\n  mload(0x40)\n  sub(codesize, bytecodeSize)\n  dup1\n  bytecodeSize\n  dup4\n  codecopy\n  dup2\n  dup2\n  add\n  0x40\n  mstore\n  dup2\n  add\n  swap1\n  tag_2\n  swap2\n  swap1\n  tag_3\n  jump\t// in\ntag_2:\n    /* \"contracts/es4/Bank.sol\":579:580  0 */\n  0x00\n    /* \"contracts/es4/Bank.sol\":561:576  initial_balance */\n  dup2\n    /* \"contracts/es4/Bank.sol\":561:580  initial_balance >=0 */\n  lt\n  iszero\n    /* \"contracts/es4/Bank.sol\":553:636  require(initial_balance >=0, \"Initial balance must be greater or equal than zero!\") */\n  tag_6\n  jumpi\n  mload(0x40)\n  0x08c379a000000000000000000000000000000000000000000000000000000000\n  dup2\n  mstore\n  0x04\n  add\n  tag_7\n  swap1\n  tag_8\n  jump\t// in\ntag_7:\n  mload(0x40)\n  dup1\n  swap2\n  sub\n  swap1\n  revert\ntag_6:\n    /* \"contracts/es4/Bank.sol\":656:671  initial_balance */\n  dup1\n    /* \"contracts/es4/Bank.sol\":646:653  balance */\n  0x00\n    /* \"contracts/es4/Bank.sol\":646:671  balance = initial_balance */\n  dup2\n  swap1\n  sstore\n  pop\n    /* \"contracts/es4/Bank.sol\":509:678  constructor (uint initial_balance){... */\n  pop\n    /* \"contracts/es4/Bank.sol\":363:1135  contract Bank{... */\n  jump(tag_9)\n    /* \"#utility.yul\":88:205   */\ntag_11:\n    /* \"#utility.yul\":197:198   */\n  0x00\n    /* \"#utility.yul\":194:195   */\n  dup1\n    /* \"#utility.yul\":187:199   */\n  revert\n    /* \"#utility.yul\":334:411   */\ntag_13:\n    /* \"#utility.yul\":371:378   */\n  0x00\n    /* \"#utility.yul\":400:405   */\n  dup2\n    /* \"#utility.yul\":389:405   */\n  swap1\n  pop\n    /* \"#utility.yul\":334:411   */\n  swap2\n  swap1\n  pop\n  jump\t// out\n    /* \"#utility.yul\":417:539   */\ntag_14:\n    /* \"#utility.yul\":490:514   */\n  tag_25\n    /* \"#utility.yul\":508:513   */\n  dup2\n    /* \"#utility.yul\":490:514   */\n  tag_13\n  jump\t// in\ntag_25:\n    /* \"#utility.yul\":483:488   */\n  dup2\n    /* \"#utility.yul\":480:515   */\n  eq\n    /* \"#utility.yul\":470:533   */\n  tag_26\n  jumpi\n    /* \"#utility.yul\":529:530   */\n  0x00\n    /* \"#utility.yul\":526:527   */\n  dup1\n    /* \"#utility.yul\":519:531   */\n  revert\n    /* \"#utility.yul\":470:533   */\ntag_26:\n    /* \"#utility.yul\":417:539   */\n  pop\n  jump\t// out\n    /* \"#utility.yul\":545:688   */\ntag_15:\n    /* \"#utility.yul\":602:607   */\n  0x00\n    /* \"#utility.yul\":633:639   */\n  dup2\n    /* \"#utility.yul\":627:640   */\n  mload\n    /* \"#utility.yul\":618:640   */\n  swap1\n  pop\n    /* \"#utility.yul\":649:682   */\n  tag_28\n    /* \"#utility.yul\":676:681   */\n  dup2\n    /* \"#utility.yul\":649:682   */\n  tag_14\n  jump\t// in\ntag_28:\n    /* \"#utility.yul\":545:688   */\n  swap3\n  swap2\n  pop\n  pop\n  jump\t// out\n    /* \"#utility.yul\":694:1045   */\ntag_3:\n    /* \"#utility.yul\":764:770   */\n  0x00\n    /* \"#utility.yul\":813:815   */\n  0x20\n    /* \"#utility.yul\":801:810   */\n  dup3\n    /* \"#utility.yul\":792:799   */\n  dup5\n    /* \"#utility.yul\":788:811   */\n  sub\n    /* \"#utility.yul\":784:816   */\n  slt\n    /* \"#utility.yul\":781:900   */\n  iszero\n  tag_30\n  jumpi\n    /* \"#utility.yul\":819:898   */\n  tag_31\n  tag_11\n  jump\t// in\ntag_31:\n    /* \"#utility.yul\":781:900   */\ntag_30:\n    /* \"#utility.yul\":939:940   */\n  0x00\n    /* \"#utility.yul\":964:1028   */\n  tag_32\n    /* \"#utility.yul\":1020:1027   */\n  dup5\n    /* \"#utility.yul\":1011:1017   */\n  dup3\n    /* \"#utility.yul\":1000:1009   */\n  dup6\n    /* \"#utility.yul\":996:1018   */\n  add\n    /* \"#utility.yul\":964:1028   */\n  tag_15\n  jump\t// in\ntag_32:\n    /* \"#utility.yul\":954:1028   */\n  swap2\n  pop\n    /* \"#utility.yul\":910:1038   */\n  pop\n    /* \"#utility.yul\":694:1045   */\n  swap3\n  swap2\n  pop\n  pop\n  jump\t// out\n    /* \"#utility.yul\":1051:1220   */\ntag_16:\n    /* \"#utility.yul\":1135:1146   */\n  0x00\n    /* \"#utility.yul\":1169:1175   */\n  dup3\n    /* \"#utility.yul\":1164:1167   */\n  dup3\n    /* \"#utility.yul\":1157:1176   */\n  mstore\n    /* \"#utility.yul\":1209:1213   */\n  0x20\n    /* \"#utility.yul\":1204:1207   */\n  dup3\n    /* \"#utility.yul\":1200:1214   */\n  add\n    /* \"#utility.yul\":1185:1214   */\n  swap1\n  pop\n    /* \"#utility.yul\":1051:1220   */\n  swap3\n  swap2\n  pop\n  pop\n  jump\t// out\n    /* \"#utility.yul\":1226:1464   */\ntag_17:\n    /* \"#utility.yul\":1366:1400   */\n  0x496e697469616c2062616c616e6365206d757374206265206772656174657220\n    /* \"#utility.yul\":1362:1363   */\n  0x00\n    /* \"#utility.yul\":1354:1360   */\n  dup3\n    /* \"#utility.yul\":1350:1364   */\n  add\n    /* \"#utility.yul\":1343:1401   */\n  mstore\n    /* \"#utility.yul\":1435:1456   */\n  0x6f7220657175616c207468616e207a65726f2100000000000000000000000000\n    /* \"#utility.yul\":1430:1432   */\n  0x20\n    /* \"#utility.yul\":1422:1428   */\n  dup3\n    /* \"#utility.yul\":1418:1433   */\n  add\n    /* \"#utility.yul\":1411:1457   */\n  mstore\n    /* \"#utility.yul\":1226:1464   */\n  pop\n  jump\t// out\n    /* \"#utility.yul\":1470:1836   */\ntag_18:\n    /* \"#utility.yul\":1612:1615   */\n  0x00\n    /* \"#utility.yul\":1633:1700   */\n  tag_36\n    /* \"#utility.yul\":1697:1699   */\n  0x33\n    /* \"#utility.yul\":1692:1695   */\n  dup4\n    /* \"#utility.yul\":1633:1700   */\n  tag_16\n  jump\t// in\ntag_36:\n    /* \"#utility.yul\":1626:1700   */\n  swap2\n  pop\n    /* \"#utility.yul\":1709:1802   */\n  tag_37\n    /* \"#utility.yul\":1798:1801   */\n  dup3\n    /* \"#utility.yul\":1709:1802   */\n  tag_17\n  jump\t// in\ntag_37:\n    /* \"#utility.yul\":1827:1829   */\n  0x40\n    /* \"#utility.yul\":1822:1825   */\n  dup3\n    /* \"#utility.yul\":1818:1830   */\n  add\n    /* \"#utility.yul\":1811:1830   */\n  swap1\n  pop\n    /* \"#utility.yul\":1470:1836   */\n  swap2\n  swap1\n  pop\n  jump\t// out\n    /* \"#utility.yul\":1842:2261   */\ntag_8:\n    /* \"#utility.yul\":2008:2012   */\n  0x00\n    /* \"#utility.yul\":2046:2048   */\n  0x20\n    /* \"#utility.yul\":2035:2044   */\n  dup3\n    /* \"#utility.yul\":2031:2049   */\n  add\n    /* \"#utility.yul\":2023:2049   */\n  swap1\n  pop\n    /* \"#utility.yul\":2095:2104   */\n  dup2\n    /* \"#utility.yul\":2089:2093   */\n  dup2\n    /* \"#utility.yul\":2085:2105   */\n  sub\n    /* \"#utility.yul\":2081:2082   */\n  0x00\n    /* \"#utility.yul\":2070:2079   */\n  dup4\n    /* \"#utility.yul\":2066:2083   */\n  add\n    /* \"#utility.yul\":2059:2106   */\n  mstore\n    /* \"#utility.yul\":2123:2254   */\n  tag_39\n    /* \"#utility.yul\":2249:2253   */\n  dup2\n    /* \"#utility.yul\":2123:2254   */\n  tag_18\n  jump\t// in\ntag_39:\n    /* \"#utility.yul\":2115:2254   */\n  swap1\n  pop\n    /* \"#utility.yul\":1842:2261   */\n  swap2\n  swap1\n  pop\n  jump\t// out\n    /* \"contracts/es4/Bank.sol\":363:1135  contract Bank{... */\ntag_9:\n  dataSize(sub_0)\n  dup1\n  dataOffset(sub_0)\n  0x00\n  codecopy\n  0x00\n  return\nstop\n\nsub_0: assembly {\n        /* \"contracts/es4/Bank.sol\":363:1135  contract Bank{... */\n      mstore(0x40, 0x80)\n      callvalue\n      dup1\n      iszero\n      tag_1\n      jumpi\n      0x00\n      dup1\n      revert\n    tag_1:\n      pop\n      jumpi(tag_2, lt(calldatasize, 0x04))\n      shr(0xe0, calldataload(0x00))\n      dup1\n      0x12065fe0\n      eq\n      tag_3\n      jumpi\n      dup1\n      0x2e1a7d4d\n      eq\n      tag_4\n      jumpi\n      dup1\n      0xb6b55f25\n      eq\n      tag_5\n      jumpi\n    tag_2:\n      0x00\n      dup1\n      revert\n        /* \"contracts/es4/Bank.sol\":1055:1133  function getBalance() public view returns(uint){... */\n    tag_3:\n      tag_6\n      tag_7\n      jump\t// in\n    tag_6:\n      mload(0x40)\n      tag_8\n      swap2\n      swap1\n      tag_9\n      jump\t// in\n    tag_8:\n      mload(0x40)\n      dup1\n      swap2\n      sub\n      swap1\n      return\n        /* \"contracts/es4/Bank.sol\":864:1049  function withdraw(uint money) public returns(uint){... */\n    tag_4:\n      tag_10\n      0x04\n      dup1\n      calldatasize\n      sub\n      dup2\n      add\n      swap1\n      tag_11\n      swap2\n      swap1\n      tag_12\n      jump\t// in\n    tag_11:\n      tag_13\n      jump\t// in\n    tag_10:\n      mload(0x40)\n      tag_14\n      swap2\n      swap1\n      tag_9\n      jump\t// in\n    tag_14:\n      mload(0x40)\n      dup1\n      swap2\n      sub\n      swap1\n      return\n        /* \"contracts/es4/Bank.sol\":684:858  function deposit(uint money) public returns(uint){... */\n    tag_5:\n      tag_15\n      0x04\n      dup1\n      calldatasize\n      sub\n      dup2\n      add\n      swap1\n      tag_16\n      swap2\n      swap1\n      tag_12\n      jump\t// in\n    tag_16:\n      tag_17\n      jump\t// in\n    tag_15:\n      mload(0x40)\n      tag_18\n      swap2\n      swap1\n      tag_9\n      jump\t// in\n    tag_18:\n      mload(0x40)\n      dup1\n      swap2\n      sub\n      swap1\n      return\n        /* \"contracts/es4/Bank.sol\":1055:1133  function getBalance() public view returns(uint){... */\n    tag_7:\n        /* \"contracts/es4/Bank.sol\":1097:1101  uint */\n      0x00\n        /* \"contracts/es4/Bank.sol\":1119:1126  balance */\n      dup1\n      sload\n        /* \"contracts/es4/Bank.sol\":1112:1126  return balance */\n      swap1\n      pop\n        /* \"contracts/es4/Bank.sol\":1055:1133  function getBalance() public view returns(uint){... */\n      swap1\n      jump\t// out\n        /* \"contracts/es4/Bank.sol\":864:1049  function withdraw(uint money) public returns(uint){... */\n    tag_13:\n        /* \"contracts/es4/Bank.sol\":909:913  uint */\n      0x00\n        /* \"contracts/es4/Bank.sol\":933:938  money */\n      dup2\n        /* \"contracts/es4/Bank.sol\":924:931  balance */\n      0x00\n      dup1\n        /* \"contracts/es4/Bank.sol\":924:938  balance-=money */\n      dup3\n      dup3\n      sload\n      tag_21\n      swap2\n      swap1\n      tag_22\n      jump\t// in\n    tag_21:\n      swap3\n      pop\n      pop\n      dup2\n      swap1\n      sstore\n      pop\n        /* \"contracts/es4/Bank.sol\":966:967  0 */\n      0x00\n        /* \"contracts/es4/Bank.sol\":956:963  balance */\n      dup1\n      sload\n        /* \"contracts/es4/Bank.sol\":956:967  balance >=0 */\n      lt\n      iszero\n        /* \"contracts/es4/Bank.sol\":948:1018  require(balance >=0, \"You cannot be in debit! Reverting transaction.\") */\n      tag_23\n      jumpi\n      mload(0x40)\n      0x08c379a000000000000000000000000000000000000000000000000000000000\n      dup2\n      mstore\n      0x04\n      add\n      tag_24\n      swap1\n      tag_25\n      jump\t// in\n    tag_24:\n      mload(0x40)\n      dup1\n      swap2\n      sub\n      swap1\n      revert\n    tag_23:\n        /* \"contracts/es4/Bank.sol\":1035:1042  balance */\n      sload(0x00)\n        /* \"contracts/es4/Bank.sol\":1028:1042  return balance */\n      swap1\n      pop\n        /* \"contracts/es4/Bank.sol\":864:1049  function withdraw(uint money) public returns(uint){... */\n      swap2\n      swap1\n      pop\n      jump\t// out\n        /* \"contracts/es4/Bank.sol\":684:858  function deposit(uint money) public returns(uint){... */\n    tag_17:\n        /* \"contracts/es4/Bank.sol\":728:732  uint */\n      0x00\n        /* \"contracts/es4/Bank.sol\":759:760  0 */\n      dup1\n        /* \"contracts/es4/Bank.sol\":751:756  money */\n      dup3\n        /* \"contracts/es4/Bank.sol\":751:760  money > 0 */\n      gt\n        /* \"contracts/es4/Bank.sol\":743:801  require(money > 0, \"You cannot deposit a negative value!\") */\n      tag_27\n      jumpi\n      mload(0x40)\n      0x08c379a000000000000000000000000000000000000000000000000000000000\n      dup2\n      mstore\n      0x04\n      add\n      tag_28\n      swap1\n      tag_29\n      jump\t// in\n    tag_28:\n      mload(0x40)\n      dup1\n      swap2\n      sub\n      swap1\n      revert\n    tag_27:\n        /* \"contracts/es4/Bank.sol\":822:827  money */\n      dup2\n        /* \"contracts/es4/Bank.sol\":811:818  balance */\n      0x00\n      dup1\n        /* \"contracts/es4/Bank.sol\":811:827  balance += money */\n      dup3\n      dup3\n      sload\n      tag_30\n      swap2\n      swap1\n      tag_31\n      jump\t// in\n    tag_30:\n      swap3\n      pop\n      pop\n      dup2\n      swap1\n      sstore\n      pop\n        /* \"contracts/es4/Bank.sol\":844:851  balance */\n      sload(0x00)\n        /* \"contracts/es4/Bank.sol\":837:851  return balance */\n      swap1\n      pop\n        /* \"contracts/es4/Bank.sol\":684:858  function deposit(uint money) public returns(uint){... */\n      swap2\n      swap1\n      pop\n      jump\t// out\n        /* \"#utility.yul\":7:84   */\n    tag_32:\n        /* \"#utility.yul\":44:51   */\n      0x00\n        /* \"#utility.yul\":73:78   */\n      dup2\n        /* \"#utility.yul\":62:78   */\n      swap1\n      pop\n        /* \"#utility.yul\":7:84   */\n      swap2\n      swap1\n      pop\n      jump\t// out\n        /* \"#utility.yul\":90:208   */\n    tag_33:\n        /* \"#utility.yul\":177:201   */\n      tag_48\n        /* \"#utility.yul\":195:200   */\n      dup2\n        /* \"#utility.yul\":177:201   */\n      tag_32\n      jump\t// in\n    tag_48:\n        /* \"#utility.yul\":172:175   */\n      dup3\n        /* \"#utility.yul\":165:202   */\n      mstore\n        /* \"#utility.yul\":90:208   */\n      pop\n      pop\n      jump\t// out\n        /* \"#utility.yul\":214:436   */\n    tag_9:\n        /* \"#utility.yul\":307:311   */\n      0x00\n        /* \"#utility.yul\":345:347   */\n      0x20\n        /* \"#utility.yul\":334:343   */\n      dup3\n        /* \"#utility.yul\":330:348   */\n      add\n        /* \"#utility.yul\":322:348   */\n      swap1\n      pop\n        /* \"#utility.yul\":358:429   */\n      tag_50\n        /* \"#utility.yul\":426:427   */\n      0x00\n        /* \"#utility.yul\":415:424   */\n      dup4\n        /* \"#utility.yul\":411:428   */\n      add\n        /* \"#utility.yul\":402:408   */\n      dup5\n        /* \"#utility.yul\":358:429   */\n      tag_33\n      jump\t// in\n    tag_50:\n        /* \"#utility.yul\":214:436   */\n      swap3\n      swap2\n      pop\n      pop\n      jump\t// out\n        /* \"#utility.yul\":523:640   */\n    tag_35:\n        /* \"#utility.yul\":632:633   */\n      0x00\n        /* \"#utility.yul\":629:630   */\n      dup1\n        /* \"#utility.yul\":622:634   */\n      revert\n        /* \"#utility.yul\":769:891   */\n    tag_37:\n        /* \"#utility.yul\":842:866   */\n      tag_55\n        /* \"#utility.yul\":860:865   */\n      dup2\n        /* \"#utility.yul\":842:866   */\n      tag_32\n      jump\t// in\n    tag_55:\n        /* \"#utility.yul\":835:840   */\n      dup2\n        /* \"#utility.yul\":832:867   */\n      eq\n        /* \"#utility.yul\":822:885   */\n      tag_56\n      jumpi\n        /* \"#utility.yul\":881:882   */\n      0x00\n        /* \"#utility.yul\":878:879   */\n      dup1\n        /* \"#utility.yul\":871:883   */\n      revert\n        /* \"#utility.yul\":822:885   */\n    tag_56:\n        /* \"#utility.yul\":769:891   */\n      pop\n      jump\t// out\n        /* \"#utility.yul\":897:1036   */\n    tag_38:\n        /* \"#utility.yul\":943:948   */\n      0x00\n        /* \"#utility.yul\":981:987   */\n      dup2\n        /* \"#utility.yul\":968:988   */\n      calldataload\n        /* \"#utility.yul\":959:988   */\n      swap1\n      pop\n        /* \"#utility.yul\":997:1030   */\n      tag_58\n        /* \"#utility.yul\":1024:1029   */\n      dup2\n        /* \"#utility.yul\":997:1030   */\n      tag_37\n      jump\t// in\n    tag_58:\n        /* \"#utility.yul\":897:1036   */\n      swap3\n      swap2\n      pop\n      pop\n      jump\t// out\n        /* \"#utility.yul\":1042:1371   */\n    tag_12:\n        /* \"#utility.yul\":1101:1107   */\n      0x00\n        /* \"#utility.yul\":1150:1152   */\n      0x20\n        /* \"#utility.yul\":1138:1147   */\n      dup3\n        /* \"#utility.yul\":1129:1136   */\n      dup5\n        /* \"#utility.yul\":1125:1148   */\n      sub\n        /* \"#utility.yul\":1121:1153   */\n      slt\n        /* \"#utility.yul\":1118:1237   */\n      iszero\n      tag_60\n      jumpi\n        /* \"#utility.yul\":1156:1235   */\n      tag_61\n      tag_35\n      jump\t// in\n    tag_61:\n        /* \"#utility.yul\":1118:1237   */\n    tag_60:\n        /* \"#utility.yul\":1276:1277   */\n      0x00\n        /* \"#utility.yul\":1301:1354   */\n      tag_62\n        /* \"#utility.yul\":1346:1353   */\n      dup5\n        /* \"#utility.yul\":1337:1343   */\n      dup3\n        /* \"#utility.yul\":1326:1335   */\n      dup6\n        /* \"#utility.yul\":1322:1344   */\n      add\n        /* \"#utility.yul\":1301:1354   */\n      tag_38\n      jump\t// in\n    tag_62:\n        /* \"#utility.yul\":1291:1354   */\n      swap2\n      pop\n        /* \"#utility.yul\":1247:1364   */\n      pop\n        /* \"#utility.yul\":1042:1371   */\n      swap3\n      swap2\n      pop\n      pop\n      jump\t// out\n        /* \"#utility.yul\":1377:1557   */\n    tag_39:\n        /* \"#utility.yul\":1425:1502   */\n      0x4e487b7100000000000000000000000000000000000000000000000000000000\n        /* \"#utility.yul\":1422:1423   */\n      0x00\n        /* \"#utility.yul\":1415:1503   */\n      mstore\n        /* \"#utility.yul\":1522:1526   */\n      0x11\n        /* \"#utility.yul\":1519:1520   */\n      0x04\n        /* \"#utility.yul\":1512:1527   */\n      mstore\n        /* \"#utility.yul\":1546:1550   */\n      0x24\n        /* \"#utility.yul\":1543:1544   */\n      0x00\n        /* \"#utility.yul\":1536:1551   */\n      revert\n        /* \"#utility.yul\":1563:1757   */\n    tag_22:\n        /* \"#utility.yul\":1603:1607   */\n      0x00\n        /* \"#utility.yul\":1623:1643   */\n      tag_65\n        /* \"#utility.yul\":1641:1642   */\n      dup3\n        /* \"#utility.yul\":1623:1643   */\n      tag_32\n      jump\t// in\n    tag_65:\n        /* \"#utility.yul\":1618:1643   */\n      swap2\n      pop\n        /* \"#utility.yul\":1657:1677   */\n      tag_66\n        /* \"#utility.yul\":1675:1676   */\n      dup4\n        /* \"#utility.yul\":1657:1677   */\n      tag_32\n      jump\t// in\n    tag_66:\n        /* \"#utility.yul\":1652:1677   */\n      swap3\n      pop\n        /* \"#utility.yul\":1701:1702   */\n      dup3\n        /* \"#utility.yul\":1698:1699   */\n      dup3\n        /* \"#utility.yul\":1694:1703   */\n      sub\n        /* \"#utility.yul\":1686:1703   */\n      swap1\n      pop\n        /* \"#utility.yul\":1725:1726   */\n      dup2\n        /* \"#utility.yul\":1719:1723   */\n      dup2\n        /* \"#utility.yul\":1716:1727   */\n      gt\n        /* \"#utility.yul\":1713:1750   */\n      iszero\n      tag_67\n      jumpi\n        /* \"#utility.yul\":1730:1748   */\n      tag_68\n      tag_39\n      jump\t// in\n    tag_68:\n        /* \"#utility.yul\":1713:1750   */\n    tag_67:\n        /* \"#utility.yul\":1563:1757   */\n      swap3\n      swap2\n      pop\n      pop\n      jump\t// out\n        /* \"#utility.yul\":1763:1932   */\n    tag_40:\n        /* \"#utility.yul\":1847:1858   */\n      0x00\n        /* \"#utility.yul\":1881:1887   */\n      dup3\n        /* \"#utility.yul\":1876:1879   */\n      dup3\n        /* \"#utility.yul\":1869:1888   */\n      mstore\n        /* \"#utility.yul\":1921:1925   */\n      0x20\n        /* \"#utility.yul\":1916:1919   */\n      dup3\n        /* \"#utility.yul\":1912:1926   */\n      add\n        /* \"#utility.yul\":1897:1926   */\n      swap1\n      pop\n        /* \"#utility.yul\":1763:1932   */\n      swap3\n      swap2\n      pop\n      pop\n      jump\t// out\n        /* \"#utility.yul\":1938:2171   */\n    tag_41:\n        /* \"#utility.yul\":2078:2112   */\n      0x596f752063616e6e6f7420626520696e2064656269742120526576657274696e\n        /* \"#utility.yul\":2074:2075   */\n      0x00\n        /* \"#utility.yul\":2066:2072   */\n      dup3\n        /* \"#utility.yul\":2062:2076   */\n      add\n        /* \"#utility.yul\":2055:2113   */\n      mstore\n        /* \"#utility.yul\":2147:2163   */\n      0x67207472616e73616374696f6e2e000000000000000000000000000000000000\n        /* \"#utility.yul\":2142:2144   */\n      0x20\n        /* \"#utility.yul\":2134:2140   */\n      dup3\n        /* \"#utility.yul\":2130:2145   */\n      add\n        /* \"#utility.yul\":2123:2164   */\n      mstore\n        /* \"#utility.yul\":1938:2171   */\n      pop\n      jump\t// out\n        /* \"#utility.yul\":2177:2543   */\n    tag_42:\n        /* \"#utility.yul\":2319:2322   */\n      0x00\n        /* \"#utility.yul\":2340:2407   */\n      tag_72\n        /* \"#utility.yul\":2404:2406   */\n      0x2e\n        /* \"#utility.yul\":2399:2402   */\n      dup4\n        /* \"#utility.yul\":2340:2407   */\n      tag_40\n      jump\t// in\n    tag_72:\n        /* \"#utility.yul\":2333:2407   */\n      swap2\n      pop\n        /* \"#utility.yul\":2416:2509   */\n      tag_73\n        /* \"#utility.yul\":2505:2508   */\n      dup3\n        /* \"#utility.yul\":2416:2509   */\n      tag_41\n      jump\t// in\n    tag_73:\n        /* \"#utility.yul\":2534:2536   */\n      0x40\n        /* \"#utility.yul\":2529:2532   */\n      dup3\n        /* \"#utility.yul\":2525:2537   */\n      add\n        /* \"#utility.yul\":2518:2537   */\n      swap1\n      pop\n        /* \"#utility.yul\":2177:2543   */\n      swap2\n      swap1\n      pop\n      jump\t// out\n        /* \"#utility.yul\":2549:2968   */\n    tag_25:\n        /* \"#utility.yul\":2715:2719   */\n      0x00\n        /* \"#utility.yul\":2753:2755   */\n      0x20\n        /* \"#utility.yul\":2742:2751   */\n      dup3\n        /* \"#utility.yul\":2738:2756   */\n      add\n        /* \"#utility.yul\":2730:2756   */\n      swap1\n      pop\n        /* \"#utility.yul\":2802:2811   */\n      dup2\n        /* \"#utility.yul\":2796:2800   */\n      dup2\n        /* \"#utility.yul\":2792:2812   */\n      sub\n        /* \"#utility.yul\":2788:2789   */\n      0x00\n        /* \"#utility.yul\":2777:2786   */\n      dup4\n        /* \"#utility.yul\":2773:2790   */\n      add\n        /* \"#utility.yul\":2766:2813   */\n      mstore\n        /* \"#utility.yul\":2830:2961   */\n      tag_75\n        /* \"#utility.yul\":2956:2960   */\n      dup2\n        /* \"#utility.yul\":2830:2961   */\n      tag_42\n      jump\t// in\n    tag_75:\n        /* \"#utility.yul\":2822:2961   */\n      swap1\n      pop\n        /* \"#utility.yul\":2549:2968   */\n      swap2\n      swap1\n      pop\n      jump\t// out\n        /* \"#utility.yul\":2974:3197   */\n    tag_43:\n        /* \"#utility.yul\":3114:3148   */\n      0x596f752063616e6e6f74206465706f7369742061206e65676174697665207661\n        /* \"#utility.yul\":3110:3111   */\n      0x00\n        /* \"#utility.yul\":3102:3108   */\n      dup3\n        /* \"#utility.yul\":3098:3112   */\n      add\n        /* \"#utility.yul\":3091:3149   */\n      mstore\n        /* \"#utility.yul\":3183:3189   */\n      0x6c75652100000000000000000000000000000000000000000000000000000000\n        /* \"#utility.yul\":3178:3180   */\n      0x20\n        /* \"#utility.yul\":3170:3176   */\n      dup3\n        /* \"#utility.yul\":3166:3181   */\n      add\n        /* \"#utility.yul\":3159:3190   */\n      mstore\n        /* \"#utility.yul\":2974:3197   */\n      pop\n      jump\t// out\n        /* \"#utility.yul\":3203:3569   */\n    tag_44:\n        /* \"#utility.yul\":3345:3348   */\n      0x00\n        /* \"#utility.yul\":3366:3433   */\n      tag_78\n        /* \"#utility.yul\":3430:3432   */\n      0x24\n        /* \"#utility.yul\":3425:3428   */\n      dup4\n        /* \"#utility.yul\":3366:3433   */\n      tag_40\n      jump\t// in\n    tag_78:\n        /* \"#utility.yul\":3359:3433   */\n      swap2\n      pop\n        /* \"#utility.yul\":3442:3535   */\n      tag_79\n        /* \"#utility.yul\":3531:3534   */\n      dup3\n        /* \"#utility.yul\":3442:3535   */\n      tag_43\n      jump\t// in\n    tag_79:\n        /* \"#utility.yul\":3560:3562   */\n      0x40\n        /* \"#utility.yul\":3555:3558   */\n      dup3\n        /* \"#utility.yul\":3551:3563   */\n      add\n        /* \"#utility.yul\":3544:3563   */\n      swap1\n      pop\n        /* \"#utility.yul\":3203:3569   */\n      swap2\n      swap1\n      pop\n      jump\t// out\n        /* \"#utility.yul\":3575:3994   */\n    tag_29:\n        /* \"#utility.yul\":3741:3745   */\n      0x00\n        /* \"#utility.yul\":3779:3781   */\n      0x20\n        /* \"#utility.yul\":3768:3777   */\n      dup3\n        /* \"#utility.yul\":3764:3782   */\n      add\n        /* \"#utility.yul\":3756:3782   */\n      swap1\n      pop\n        /* \"#utility.yul\":3828:3837   */\n      dup2\n        /* \"#utility.yul\":3822:3826   */\n      dup2\n        /* \"#utility.yul\":3818:3838   */\n      sub\n        /* \"#utility.yul\":3814:3815   */\n      0x00\n        /* \"#utility.yul\":3803:3812   */\n      dup4\n        /* \"#utility.yul\":3799:3816   */\n      add\n        /* \"#utility.yul\":3792:3839   */\n      mstore\n        /* \"#utility.yul\":3856:3987   */\n      tag_81\n        /* \"#utility.yul\":3982:3986   */\n      dup2\n        /* \"#utility.yul\":3856:3987   */\n      tag_44\n      jump\t// in\n    tag_81:\n        /* \"#utility.yul\":3848:3987   */\n      swap1\n      pop\n        /* \"#utility.yul\":3575:3994   */\n      swap2\n      swap1\n      pop\n      jump\t// out\n        /* \"#utility.yul\":4000:4191   */\n    tag_31:\n        /* \"#utility.yul\":4040:4043   */\n      0x00\n        /* \"#utility.yul\":4059:4079   */\n      tag_83\n        /* \"#utility.yul\":4077:4078   */\n      dup3\n        /* \"#utility.yul\":4059:4079   */\n      tag_32\n      jump\t// in\n    tag_83:\n        /* \"#utility.yul\":4054:4079   */\n      swap2\n      pop\n        /* \"#utility.yul\":4093:4113   */\n      tag_84\n        /* \"#utility.yul\":4111:4112   */\n      dup4\n        /* \"#utility.yul\":4093:4113   */\n      tag_32\n      jump\t// in\n    tag_84:\n        /* \"#utility.yul\":4088:4113   */\n      swap3\n      pop\n        /* \"#utility.yul\":4136:4137   */\n      dup3\n        /* \"#utility.yul\":4133:4134   */\n      dup3\n        /* \"#utility.yul\":4129:4138   */\n      add\n        /* \"#utility.yul\":4122:4138   */\n      swap1\n      pop\n        /* \"#utility.yul\":4157:4160   */\n      dup1\n        /* \"#utility.yul\":4154:4155   */\n      dup3\n        /* \"#utility.yul\":4151:4161   */\n      gt\n        /* \"#utility.yul\":4148:4184   */\n      iszero\n      tag_85\n      jumpi\n        /* \"#utility.yul\":4164:4182   */\n      tag_86\n      tag_39\n      jump\t// in\n    tag_86:\n        /* \"#utility.yul\":4148:4184   */\n    tag_85:\n        /* \"#utility.yul\":4000:4191   */\n      swap3\n      swap2\n      pop\n      pop\n      jump\t// out\n\n    auxdata: 0xa26469706673582212208425aae615767a9ec82362b46d95cea10f67a5be09a1edac77c47aa8c9e2c7ca64736f6c634300081a0033\n}\n",
				"bytecode": {
					"linkReferences": {},
					"object": "60806040525f8055348015610012575f80fd5b506040516105a03803806105a0833981810160405281019061003491906100ba565b5f811015610077576040517f08c379a000000000000000000000000000000000000000000000000000000000815260040161006e90610165565b60405180910390fd5b805f8190555050610183565b5f80fd5b5f819050919050565b61009981610087565b81146100a3575f80fd5b50565b5f815190506100b481610090565b92915050565b5f602082840312156100cf576100ce610083565b5b5f6100dc848285016100a6565b91505092915050565b5f82825260208201905092915050565b7f496e697469616c2062616c616e6365206d7573742062652067726561746572205f8201527f6f7220657175616c207468616e207a65726f2100000000000000000000000000602082015250565b5f61014f6033836100e5565b915061015a826100f5565b604082019050919050565b5f6020820190508181035f83015261017c81610143565b9050919050565b610410806101905f395ff3fe608060405234801561000f575f80fd5b506004361061003f575f3560e01c806312065fe0146100435780632e1a7d4d14610061578063b6b55f2514610091575b5f80fd5b61004b6100c1565b60405161005891906101a9565b60405180910390f35b61007b600480360381019061007691906101f0565b6100c9565b60405161008891906101a9565b60405180910390f35b6100ab60048036038101906100a691906101f0565b61012e565b6040516100b891906101a9565b60405180910390f35b5f8054905090565b5f815f808282546100da9190610248565b925050819055505f80541015610125576040517f08c379a000000000000000000000000000000000000000000000000000000000815260040161011c906102fb565b60405180910390fd5b5f549050919050565b5f808211610171576040517f08c379a000000000000000000000000000000000000000000000000000000000815260040161016890610389565b60405180910390fd5b815f8082825461018191906103a7565b925050819055505f549050919050565b5f819050919050565b6101a381610191565b82525050565b5f6020820190506101bc5f83018461019a565b92915050565b5f80fd5b6101cf81610191565b81146101d9575f80fd5b50565b5f813590506101ea816101c6565b92915050565b5f60208284031215610205576102046101c2565b5b5f610212848285016101dc565b91505092915050565b7f4e487b71000000000000000000000000000000000000000000000000000000005f52601160045260245ffd5b5f61025282610191565b915061025d83610191565b92508282039050818111156102755761027461021b565b5b92915050565b5f82825260208201905092915050565b7f596f752063616e6e6f7420626520696e2064656269742120526576657274696e5f8201527f67207472616e73616374696f6e2e000000000000000000000000000000000000602082015250565b5f6102e5602e8361027b565b91506102f08261028b565b604082019050919050565b5f6020820190508181035f830152610312816102d9565b9050919050565b7f596f752063616e6e6f74206465706f7369742061206e656761746976652076615f8201527f6c75652100000000000000000000000000000000000000000000000000000000602082015250565b5f61037360248361027b565b915061037e82610319565b604082019050919050565b5f6020820190508181035f8301526103a081610367565b9050919050565b5f6103b182610191565b91506103bc83610191565b92508282019050808211156103d4576103d361021b565b5b9291505056fea26469706673582212208425aae615767a9ec82362b46d95cea10f67a5be09a1edac77c47aa8c9e2c7ca64736f6c634300081a0033",
					"opcodes": "PUSH1 0x80 PUSH1 0x40 MSTORE PUSH0 DUP1 SSTORE CALLVALUE DUP1 ISZERO PUSH2 0x12 JUMPI PUSH0 DUP1 REVERT JUMPDEST POP PUSH1 0x40 MLOAD PUSH2 0x5A0 CODESIZE SUB DUP1 PUSH2 0x5A0 DUP4 CODECOPY DUP2 DUP2 ADD PUSH1 0x40 MSTORE DUP2 ADD SWAP1 PUSH2 0x34 SWAP2 SWAP1 PUSH2 0xBA JUMP JUMPDEST PUSH0 DUP2 LT ISZERO PUSH2 0x77 JUMPI PUSH1 0x40 MLOAD PUSH32 0x8C379A000000000000000000000000000000000000000000000000000000000 DUP2 MSTORE PUSH1 0x4 ADD PUSH2 0x6E SWAP1 PUSH2 0x165 JUMP JUMPDEST PUSH1 0x40 MLOAD DUP1 SWAP2 SUB SWAP1 REVERT JUMPDEST DUP1 PUSH0 DUP2 SWAP1 SSTORE POP POP PUSH2 0x183 JUMP JUMPDEST PUSH0 DUP1 REVERT JUMPDEST PUSH0 DUP2 SWAP1 POP SWAP2 SWAP1 POP JUMP JUMPDEST PUSH2 0x99 DUP2 PUSH2 0x87 JUMP JUMPDEST DUP2 EQ PUSH2 0xA3 JUMPI PUSH0 DUP1 REVERT JUMPDEST POP JUMP JUMPDEST PUSH0 DUP2 MLOAD SWAP1 POP PUSH2 0xB4 DUP2 PUSH2 0x90 JUMP JUMPDEST SWAP3 SWAP2 POP POP JUMP JUMPDEST PUSH0 PUSH1 0x20 DUP3 DUP5 SUB SLT ISZERO PUSH2 0xCF JUMPI PUSH2 0xCE PUSH2 0x83 JUMP JUMPDEST JUMPDEST PUSH0 PUSH2 0xDC DUP5 DUP3 DUP6 ADD PUSH2 0xA6 JUMP JUMPDEST SWAP2 POP POP SWAP3 SWAP2 POP POP JUMP JUMPDEST PUSH0 DUP3 DUP3 MSTORE PUSH1 0x20 DUP3 ADD SWAP1 POP SWAP3 SWAP2 POP POP JUMP JUMPDEST PUSH32 0x496E697469616C2062616C616E6365206D757374206265206772656174657220 PUSH0 DUP3 ADD MSTORE PUSH32 0x6F7220657175616C207468616E207A65726F2100000000000000000000000000 PUSH1 0x20 DUP3 ADD MSTORE POP JUMP JUMPDEST PUSH0 PUSH2 0x14F PUSH1 0x33 DUP4 PUSH2 0xE5 JUMP JUMPDEST SWAP2 POP PUSH2 0x15A DUP3 PUSH2 0xF5 JUMP JUMPDEST PUSH1 0x40 DUP3 ADD SWAP1 POP SWAP2 SWAP1 POP JUMP JUMPDEST PUSH0 PUSH1 0x20 DUP3 ADD SWAP1 POP DUP2 DUP2 SUB PUSH0 DUP4 ADD MSTORE PUSH2 0x17C DUP2 PUSH2 0x143 JUMP JUMPDEST SWAP1 POP SWAP2 SWAP1 POP JUMP JUMPDEST PUSH2 0x410 DUP1 PUSH2 0x190 PUSH0 CODECOPY PUSH0 RETURN INVALID PUSH1 0x80 PUSH1 0x40 MSTORE CALLVALUE DUP1 ISZERO PUSH2 0xF JUMPI PUSH0 DUP1 REVERT JUMPDEST POP PUSH1 0x4 CALLDATASIZE LT PUSH2 0x3F JUMPI PUSH0 CALLDATALOAD PUSH1 0xE0 SHR DUP1 PUSH4 0x12065FE0 EQ PUSH2 0x43 JUMPI DUP1 PUSH4 0x2E1A7D4D EQ PUSH2 0x61 JUMPI DUP1 PUSH4 0xB6B55F25 EQ PUSH2 0x91 JUMPI JUMPDEST PUSH0 DUP1 REVERT JUMPDEST PUSH2 0x4B PUSH2 0xC1 JUMP JUMPDEST PUSH1 0x40 MLOAD PUSH2 0x58 SWAP2 SWAP1 PUSH2 0x1A9 JUMP JUMPDEST PUSH1 0x40 MLOAD DUP1 SWAP2 SUB SWAP1 RETURN JUMPDEST PUSH2 0x7B PUSH1 0x4 DUP1 CALLDATASIZE SUB DUP2 ADD SWAP1 PUSH2 0x76 SWAP2 SWAP1 PUSH2 0x1F0 JUMP JUMPDEST PUSH2 0xC9 JUMP JUMPDEST PUSH1 0x40 MLOAD PUSH2 0x88 SWAP2 SWAP1 PUSH2 0x1A9 JUMP JUMPDEST PUSH1 0x40 MLOAD DUP1 SWAP2 SUB SWAP1 RETURN JUMPDEST PUSH2 0xAB PUSH1 0x4 DUP1 CALLDATASIZE SUB DUP2 ADD SWAP1 PUSH2 0xA6 SWAP2 SWAP1 PUSH2 0x1F0 JUMP JUMPDEST PUSH2 0x12E JUMP JUMPDEST PUSH1 0x40 MLOAD PUSH2 0xB8 SWAP2 SWAP1 PUSH2 0x1A9 JUMP JUMPDEST PUSH1 0x40 MLOAD DUP1 SWAP2 SUB SWAP1 RETURN JUMPDEST PUSH0 DUP1 SLOAD SWAP1 POP SWAP1 JUMP JUMPDEST PUSH0 DUP2 PUSH0 DUP1 DUP3 DUP3 SLOAD PUSH2 0xDA SWAP2 SWAP1 PUSH2 0x248 JUMP JUMPDEST SWAP3 POP POP DUP2 SWAP1 SSTORE POP PUSH0 DUP1 SLOAD LT ISZERO PUSH2 0x125 JUMPI PUSH1 0x40 MLOAD PUSH32 0x8C379A000000000000000000000000000000000000000000000000000000000 DUP2 MSTORE PUSH1 0x4 ADD PUSH2 0x11C SWAP1 PUSH2 0x2FB JUMP JUMPDEST PUSH1 0x40 MLOAD DUP1 SWAP2 SUB SWAP1 REVERT JUMPDEST PUSH0 SLOAD SWAP1 POP SWAP2 SWAP1 POP JUMP JUMPDEST PUSH0 DUP1 DUP3 GT PUSH2 0x171 JUMPI PUSH1 0x40 MLOAD PUSH32 0x8C379A000000000000000000000000000000000000000000000000000000000 DUP2 MSTORE PUSH1 0x4 ADD PUSH2 0x168 SWAP1 PUSH2 0x389 JUMP JUMPDEST PUSH1 0x40 MLOAD DUP1 SWAP2 SUB SWAP1 REVERT JUMPDEST DUP2 PUSH0 DUP1 DUP3 DUP3 SLOAD PUSH2 0x181 SWAP2 SWAP1 PUSH2 0x3A7 JUMP JUMPDEST SWAP3 POP POP DUP2 SWAP1 SSTORE POP PUSH0 SLOAD SWAP1 POP SWAP2 SWAP1 POP JUMP JUMPDEST PUSH0 DUP2 SWAP1 POP SWAP2 SWAP1 POP JUMP JUMPDEST PUSH2 0x1A3 DUP2 PUSH2 0x191 JUMP JUMPDEST DUP3 MSTORE POP POP JUMP JUMPDEST PUSH0 PUSH1 0x20 DUP3 ADD SWAP1 POP PUSH2 0x1BC PUSH0 DUP4 ADD DUP5 PUSH2 0x19A JUMP JUMPDEST SWAP3 SWAP2 POP POP JUMP JUMPDEST PUSH0 DUP1 REVERT JUMPDEST PUSH2 0x1CF DUP2 PUSH2 0x191 JUMP JUMPDEST DUP2 EQ PUSH2 0x1D9 JUMPI PUSH0 DUP1 REVERT JUMPDEST POP JUMP JUMPDEST PUSH0 DUP2 CALLDATALOAD SWAP1 POP PUSH2 0x1EA DUP2 PUSH2 0x1C6 JUMP JUMPDEST SWAP3 SWAP2 POP POP JUMP JUMPDEST PUSH0 PUSH1 0x20 DUP3 DUP5 SUB SLT ISZERO PUSH2 0x205 JUMPI PUSH2 0x204 PUSH2 0x1C2 JUMP JUMPDEST JUMPDEST PUSH0 PUSH2 0x212 DUP5 DUP3 DUP6 ADD PUSH2 0x1DC JUMP JUMPDEST SWAP2 POP POP SWAP3 SWAP2 POP POP JUMP JUMPDEST PUSH32 0x4E487B7100000000000000000000000000000000000000000000000000000000 PUSH0 MSTORE PUSH1 0x11 PUSH1 0x4 MSTORE PUSH1 0x24 PUSH0 REVERT JUMPDEST PUSH0 PUSH2 0x252 DUP3 PUSH2 0x191 JUMP JUMPDEST SWAP2 POP PUSH2 0x25D DUP4 PUSH2 0x191 JUMP JUMPDEST SWAP3 POP DUP3 DUP3 SUB SWAP1 POP DUP2 DUP2 GT ISZERO PUSH2 0x275 JUMPI PUSH2 0x274 PUSH2 0x21B JUMP JUMPDEST JUMPDEST SWAP3 SWAP2 POP POP JUMP JUMPDEST PUSH0 DUP3 DUP3 MSTORE PUSH1 0x20 DUP3 ADD SWAP1 POP SWAP3 SWAP2 POP POP JUMP JUMPDEST PUSH32 0x596F752063616E6E6F7420626520696E2064656269742120526576657274696E PUSH0 DUP3 ADD MSTORE PUSH32 0x67207472616E73616374696F6E2E000000000000000000000000000000000000 PUSH1 0x20 DUP3 ADD MSTORE POP JUMP JUMPDEST PUSH0 PUSH2 0x2E5 PUSH1 0x2E DUP4 PUSH2 0x27B JUMP JUMPDEST SWAP2 POP PUSH2 0x2F0 DUP3 PUSH2 0x28B JUMP JUMPDEST PUSH1 0x40 DUP3 ADD SWAP1 POP SWAP2 SWAP1 POP JUMP JUMPDEST PUSH0 PUSH1 0x20 DUP3 ADD SWAP1 POP DUP2 DUP2 SUB PUSH0 DUP4 ADD MSTORE PUSH2 0x312 DUP2 PUSH2 0x2D9 JUMP JUMPDEST SWAP1 POP SWAP2 SWAP1 POP JUMP JUMPDEST PUSH32 0x596F752063616E6E6F74206465706F7369742061206E65676174697665207661 PUSH0 DUP3 ADD MSTORE PUSH32 0x6C75652100000000000000000000000000000000000000000000000000000000 PUSH1 0x20 DUP3 ADD MSTORE POP JUMP JUMPDEST PUSH0 PUSH2 0x373 PUSH1 0x24 DUP4 PUSH2 0x27B JUMP JUMPDEST SWAP2 POP PUSH2 0x37E DUP3 PUSH2 0x319 JUMP JUMPDEST PUSH1 0x40 DUP3 ADD SWAP1 POP SWAP2 SWAP1 POP JUMP JUMPDEST PUSH0 PUSH1 0x20 DUP3 ADD SWAP1 POP DUP2 DUP2 SUB PUSH0 DUP4 ADD MSTORE PUSH2 0x3A0 DUP2 PUSH2 0x367 JUMP JUMPDEST SWAP1 POP SWAP2 SWAP1 POP JUMP JUMPDEST PUSH0 PUSH2 0x3B1 DUP3 PUSH2 0x191 JUMP JUMPDEST SWAP2 POP PUSH2 0x3BC DUP4 PUSH2 0x191 JUMP JUMPDEST SWAP3 POP DUP3 DUP3 ADD SWAP1 POP DUP1 DUP3 GT ISZERO PUSH2 0x3D4 JUMPI PUSH2 0x3D3 PUSH2 0x21B JUMP JUMPDEST JUMPDEST SWAP3 SWAP2 POP POP JUMP INVALID LOG2 PUSH5 0x6970667358 0x22 SLT KECCAK256 DUP5 0x25 0xAA 0xE6 ISZERO PUSH23 0x7A9EC82362B46D95CEA10F67A5BE09A1EDAC77C47AA8C9 0xE2 0xC7 0xCA PUSH5 0x736F6C6343 STOP ADDMOD BYTE STOP CALLER "
				},
				"gasEstimates": {
					"creation": {
						"codeDepositCost": "208000",
						"executionCost": "infinite",
						"totalCost": "infinite"
					},
					"external": {
						"deposit(uint256)": "infinite",
						"getBalance()": "2410",
						"withdraw(uint256)": "infinite"
					}
				},
				"methodIdentifiers": {
					"deposit(uint256)": "b6b55f25",
					"getBalance()": "12065fe0",
					"withdraw(uint256)": "2e1a7d4d"
				}
			},
			"storageLayout": {
				"storage": [
					{
						"astId": 5,
						"contract": "contracts/es4/Bank.sol:Bank",
						"label": "balance",
						"offset": 0,
						"slot": "0",
						"type": "t_uint256"
					}
				],
				"types": {
					"t_uint256": {
						"encoding": "inplace",
						"label": "uint256",
						"numberOfBytes": "32"
					}
				}
			},
			"userdoc": {
				"kind": "user",
				"methods": {},
				"notice": "a simple Bank system where a user can deposit or withdraw money. it is similar to the Counter exercises but in this case we need to include some checks on the available balance before allowing any withdraw, in this case, require() will be used as we will give back all gas not already used.",
				"version": 1
			}
		}
	}
}